:020000040800F2
:100000008006002089010008910100089301000882
:100010009501000897010008990100080000000000
:100020000000000000000000000000009B0100082C
:100030009D010008000000009F01000885040008E1
:10004000A3010008A3010008A3010008A301000800
:10005000A3010008A3010008A3010008A3010008F0
:10006000A3010008A3010008A3010008A3010008E0
:10007000A3010008A3010008A3010008A3010008D0
:10008000A3010008A3010008A3010008A3010008C0
:10009000A3010008A3010008A3010008A3010008B0
:1000A000A3010008A3010008A3010008A3010008A0
:1000B000A3010008A3010008A3010008A301000890
:1000C000A3010008A3010008A3010008A301000880
:1000D000A3010008A3010008A3010008A301000870
:1000E000A3010008A3010008A301000800F002F822
:1000F00000F03AF80AA090E8000C82448344AAF188
:100100000107DA4501D100F02FF8AFF2090EBAE885
:100110000F0013F0010F18BFFB1A43F0010318473B
:10012000CC040000EC040000103A24BF78C878C169
:10013000FAD8520724BF30C830C144BF04680C60ED
:10014000704700000023002400250026103A28BF35
:1001500078C1FBD8520728BF30C148BF0B60704739
:100160001FB51FBD10B510BD00F031F81146FFF7E7
:10017000F7FF00F0C3F900F04FF803B4FFF7F2FF08
:1001800003BC00F053F800000948804709480047C5
:10019000FEE7FEE7FEE7FEE7FEE7FEE7FEE7FEE737
:1001A000FEE7FEE704480549054A064B7047000094
:1001B0009D040008ED00000880000020800600205B
:1001C000800200208002002070477047704775460B
:1001D00000F028F8AE4605006946534620F00700B7
:1001E000854618B020B5FFF7DDFFBDE820404FF091
:1001F00000064FF000074FF000084FF0000B21F011
:100200000701AC46ACE8C009ACE8C009ACE8C009DD
:10021000ACE8C0098D4670470446AFF30080204625
:10022000FFF7ABFF004870471C0000200149182071
:10023000ABBEFEE72600020070472DE9F041024602
:1002400000250026002000230024002791F803C089
:100250000CF00F0591F803C00CF0100CBCF1000F6E
:1002600003D091F802C04CEA050591F800C0BCF13A
:10027000000F31D0146800202BE04FF0010C0CFA75
:1002800000F3B1F800C00CEA03069E4220D18300BF
:100290004FF00F0C0CFA03F7BC4305FA03FC4CEAD1
:1002A000040491F803C0BCF1280F06D14FF0010CF3
:1002B0000CFA00FCC2F814C00AE091F803C0BCF1CB
:1002C000480F05D14FF0010C0CFA00FCC2F810C029
:1002D000401C0828D1D31460B1F800C0BCF1FF0F56
:1002E00034DD546800202EE000F1080C4FF00108C6
:1002F00008FA0CF3B1F800C00CEA03069E4221D1C3
:1003000083004FF00F0C0CFA03F7BC4305FA03FC13
:100310004CEA040491F803C0BCF1280F05D100F1A8
:10032000080C08FA0CF8C2F8148091F803C0BCF16C
:10033000480F07D100F1080C4FF0010808FA0CF83B
:10034000C2F81080401C0828CED35460BDE8F0816C
:100350000246002093680B400BB1012000E0002012
:1003600070474FF6FF710180022181700421C17036
:1003700070470AB1016100E04161704729B1064A46
:1003800092690243044B9A6104E0034A92698243F2
:10039000014B9A61704700000010024010B500F058
:1003A00001F810BD0CB500200190009033480068A2
:1003B00040F480303149086000BF3048006800F4E4
:1003C000003000900198401C0190009818B90198E5
:1003D000B0F5A06FF1D12948006800F4003010B1E9
:1003E0000120009001E0002000900098012843D1F6
:1003F0002348006840F01000214908600846006862
:1004000020F0030008600846006840F00200086021
:100410001A484068194948600846406848600846DC
:10042000406840F4806048600846406820F47C10D2
:1004300048600846406840F4E81048600846006894
:1004400040F08070086000BF0C48006800F0007049
:100450000028F9D00948406820F0030007494860A7
:100460000846406840F00200486000BF034840680A
:1004700000F00C000828F9D10CBD0000001002406B
:10048000002002400448006820B103480068401E74
:1004900001490860704700000000002010B51348B3
:1004A000006840F0010011490860084640681049A2
:1004B00008400E494860084600680E4908400B494C
:1004C00008600846006820F48020086008464068FC
:1004D00020F4FE0048604FF41F008860FFF75EFFC5
:1004E0004FF000600449086010BD00000010024099
:1004F0000000FFF8FFFFF6FE08ED00E008B501215F
:100500001020FFF73BFF6846FFF72BFF4FF400502A
:10051000ADF8000002208DF8020010208DF80300D5
:1005200069462C48FFF789FE01210420FFF726FFCA
:100530006846FFF716FF0120ADF8000028208DF86F
:10054000030069462448FFF778FE244800684FF40A
:100550007A72B0FBF2F1B1F1807F01D301201DE08E
:1005600021F07F40401E4FF0E022506150170F22D3
:10057000002807DA13071D0E194B00F00F04241F83
:100580001D5503E013071C0E164B1C5400BF002022
:100590004FF0E022906107201061002008B100BFF9
:1005A000FEE715E001210C48FFF7D2FE0E49086076
:1005B00008460068012805D1012241030548FFF7DC
:1005C000D8FE05E000224FF400510248FFF7D1FEAB
:1005D000E8E700000010014000080140080000208A
:1005E00018ED00E000E400E0040000200C06000824
:1005F000000000201C000000280100082806000858
:100600001C000020640600004401000800000000F7
:100610000000000000A24A040000000000000000EA
:080620000102030406070809AA
:040000050800018965
:00000001FF
